S0110000687964726F5F70726F6A2E733337A3
S113000000100020A11200006B6100006B61000071
S11300106B6100006B6100006B6100006B610000AC
S11300206B6100006B6100006B6100006B6100009C
S11300306B6100006B6100006B6100006B6100008C
S11300406B6100006B6100006B6100006B6100007C
S11300506B6100006B6100006B6100006B6100006C
S11300606B6100006B6100006B6100006B6100005C
S1130070453D00006B6100006B6100006B61000096
S11300806B6100006B6100006B6100006B6100003C
S11300906B610000611900006B6100006B6100007E
S11300A06B6100006B6100007D0F00006B6100005C
S11300B06B6100006B6100006B6100006B6100000C
S11300C06B6100006B6100006B6100006B610000FC
S11300D06B6100006B6100006B6100006B610000EC
S11300E06B6100006B6100006B6100006B610000DC
S11300F06B6100006B6100006B6100006B610000CC
S11301006B6100006B6100006B6100006B610000BB
S11301106B6100006B6100006B6100006B610000AB
S11301206B6100006B6100006B6100006B6100009B
S11301306B6100006B610000411200009D600000D3
S11301402DE9F04FC76997B08346209E08910C9221
S1130150129355EC104B8DED000B7FB9102004F079
S1130160E3FE0246CBF81C0020B9A74BEF21A748B9
S113017005F048FCC0E901770760C760DBF81C3074
S1130180196859B15A680123584693404A608B60F4
S113019004F0B8FFDBF81C3000221A602B1EB7BF36
S11301A023F00043002301220193A8BF3360019F81
S11301B0974BB8BF3260BB4319D142F20F73129A06
S11301C01360C7F31303234300F0DB85219B53B96A
S11301D0904B21E0904B03930833219A13600398CA
S11301E017B0BDE8F08F8B4B03930333F5E79DED18
S11301F0007B0022002351EC170B8DED0A7B05F0E8
S1130200B3FE804650B10123129A1360219B13B1AF
S1130210824B219A1360824B0393E0E7C7F30A569B
S113022014AA15A958469DED0A0B05F0F3F902909E
S1130230002E76D00B9BA6F2FF36CDF84C80C3F38C
S1130240130343F07F53DDE90A0143F440131946D5
S11302500022744B03F094FD65A3D3E9002305F059
S11302601BFC65A3D3E9002303F08CFD04460D4673
S1130270304603F0D3FE62A3D3E9002305F00CFC5F
S113028002460B462046294603F07CFD04460D46F3
S113029005F0B2FE0022074600232046294605F059
S11302A06DFE40B1384603F0B9FE22462B4605F0F8
S11302B05BFE00B9013F162F52D85B4B03EBC7031B
S11302C0DDE90A01D3E9002305F058FE002849D0EE
S11302D0013F00231193149B9B1B5A1E4CBFC3F177
S11302E001030023079245BF069300230693079357
S11302F0002F39DB079B10973B4407930023099396
S1130300089B092B66D8052BC5BF043B0024012498
S11303100893089B023B032B67D8DFE803F02D3AD0
S11303203859DDE914631E4406F23243202BC9BF59
S1130330C3F14003C3F120039F4006F21243D8BF28
S113034004FA03F006F1FF36C4BF24FA03F347EAC4
S1130350030003F053FE0122A1F1F873139276E730
S11303600123B7E71190B6E7069BDB1B06937B429C
S1130370099300231093C3E700230D930C9B002BD8
S113038056DC012399461A4604930C920CE001238F
S1130390F3E700230D930C9BFB1803F1010904936D
S11303A04B46012BB8BF0123DBF81C0000210422BB
S11303B002F114059D423FD94160584604F062FEA3
S11303C0039000283BD1194B024640F2AF11CEE610
S11303D00123DFE7012400230D9408934FF0FF333A
S11303E00022994604931223CFE701230D93F5E7E6
S11303F061436F63A787D23FB3C8608B288AC63F27
S1130400FB799F501344D33FBD740000D4740000A3
S11304100000F07FB9740000B07400008D74000017
S11304208C7400000000F83FD07500002D750000AA
S11304300C9B99460493B7E701315200B8E7DBF807
S11304401C30B9F10E0F039A1A606FD8002C6DD0CE
S1130450002F36DD07F00F02A04BF8054FEA2714F2
S113046003EBC20393ED007B8DED0E7B17D59C4B04
S113047004F00F044FF00308D3E90823DDE90A016F
S113048005F034FCCDE90001954D5CB9DDE90E239E
S1130490DDE9000105F02AFCCDE900012BE04FF075
S11304A00208F1E7E10709D508F10108DDE90E01C9
S11304B0D5E9002305F0F0FACDE90E016410083502
S11304C0E3E700F007817C42844B854D4FF002083E
S11304D004F00F02241103EBC203DDE90A01D3E99E
S11304E0002305F0D9FA0023CDE90001002C40F0E7
S11304F0E580002BD0D1119BDDE90045002B00F0F5
S11305004C810022774B2046294605F037FD002810
S113051000F04381B9F1000F00F03F81049B002BF0
S113052000F3E480DDE90A34CDE90034159B002BA7
S113053002DB0E2F40F342820D9A002A40F06782BC
S1130540099C0025DDF81880B8F1000F0DD0079B39
S1130550002B0ADD4345069AA8BF4346D21AA8EBEE
S113056003080692079AD31A0793099B0BB30D9BB2
S1130570002B00F0A682002C00F0A182294622461E
S1130580584604F0E9FE029A01460546584604F02E
S113059039FE02990646584604F0B4FD099B1B1B1C
S11305A0099300F09182099A3146584604F0D4FE2A
S11305B002900121584604F00FFE109B0446002BC4
S11305C000F084821A460146584604F0C5FE089B92
S11305D00446012B03DC009B002B00F07C820026E8
S11305E0236904EB8303186906F0FBF9C0F12000CA
S11305F01096079B184410F01F0000F09182C0F180
S11306002003042B40F38182C0F11C00069B0344A9
S113061080440693079B03440793069B002B05DD48
S11306201A460299584604F0F1FE0290079B002BEB
S113063005DD21461A46584604F0E8FE0446119B9F
S1130640002B00F076822146029806F019FA002861
S113065080F26F8200230A220299584604F074FD46
S11306600D9B7E1E0290002B00F05C820023294625
S11306700A22584604F068FD049B0546002B03DC5F
S1130680089B022B00F35E82B8F1000F05DD2946BA
S11306904246584604F0BAFE0546109B002B00F073
S11306A0D0826968584604F0EDFC0746002840F003
S11306B07F820D4B024640F2EF2158E5E20706D552
S11306C008F10108D5E9002305F0E6F901236410D7
S11306D008350BE74FF002080DE700BFD0750000A6
S11306E0A87500000000F03F2D7500002046002290
S11306F0AC4B294605F0D0F97E1E08F10108049C94
S1130700CDE90001404603F089FCDDE9002305F052
S1130710C3F9A54B002203F035FBA1F15073CDE9D9
S11307200E010F93002C3BD10022A04BDDE9000108
S113073003F026FB02460B46CDE90023DDE90E2338
S113074005F03AFC002840F05781DDE90E2101F163
S11307500043DDE9000105F011FC00283FF4E2AE9E
S1130760002425460C9BDDF80CA0DE434FF0000866
S11307702146584604F0C6FC002D00F0A980B8F1CB
S1130780000F05D0A84503D04146584604F0BAFCF2
S11307902946584604F0B6FC9AE03E464C46B1E77A
S11307A0834B03EBC40353E90201039B1C440D9BDD
S11307B0002B4AD002460B4600207E4905F096FAEB
S11307C0DDE90E2303F0DCFADDF80CA0CDE90E011F
S11307D0DDE9000105F010FC054603F01FFC0246AC
S11307E030350B46DDE9000103F0CAFA0AF8015B73
S11307F002460B46CDE90001DDE90E0105F0DCFB04
S1130800002865D100206C49DDE9002303F0B8FA23
S113081002460B46DDE90E0105F0CEFB002840F050
S11308200D81A24500F0EA8000225E4BDDE90E0155
S113083005F032F900225B4BCDE90E01DDE9000140
S113084005F02AF9CDE90001C2E7DDE90E2305F040
S113085023F9A046DDF80CA0CDE90E01DDE9000185
S113086005F0CAFB054603F0D9FB024630350B46BA
S1130870DDE9000103F084FA0AF8015B02460B4645
S1130880A245CDE900234FF0000223D1494BDDE915
S11308900E0103F077FA02460B46DDE9000105F08C
S11308A08BFB002840F0CA8000204249DDE90E237A
S11308B003F066FA02460B46DDE9000105F05EFB33
S11308C070B1C24608F1FF381AF8013C302BF8D059
S11308D0374655E0334B05F0DFF8CDE90001BDE7BD
S11308E0DDE90A34CDE90034159B002BFFF628AE70
S11308F00E2F3FF725AE2E4B03EBC70393ED007B82
S11309000C9B002B8DED047B02DAB9F1000F64D04F
S1130910DDF80CA0DDE90045DDE904232046294685
S113092005F0E4F905F068FB064603F077FBDDE922
S1130930042305F0B1F80246204606F130040B46C4
S1130940294603F01DFA0AF8014B039C02460B46A4
S1130950AAEB0404A14540F0828003F013FA044694
S11309600D46DDE9042305F027FB002865D1204668
S11309702946DDE9042305F0F7FA08B1F3075CD44E
S11309800299584604F0BEFB002301378AF8003070
S1130990129B1F60219B002B3FF421ACC3F800A0E5
S11309A01DE400BF0000244000001C40000014406F
S11309B0D07500000000E03F0000F03FA24B03EBC5
S11309C0C70393ED007B0C9B002B8DED047B9FDA1A
S11309D0B9F1000F9CDC7FF4C3AE00229B4BDDE930
S11309E0040105F059F8DDE9002305F0DBFA0446BB
S11309F000287FF4B5AE3E462546B4E0DDE90A346E
S1130A00CDE90034159B002B01DB0E2FD6DD089AAF
S1130A10012A36DC139A82B303F23343099CDDF8CE
S1130A201880069A012158461A440692079A1A44D5
S1130A30079204F0D1FB054686E53E4653469A46A6
S1130A4013F8012D392A06D1039A9A42F7D130229C
S1130A50039901360A701A7801321A7038E70022B5
S1130A607B4B05F019F80022002304460D4605F0DF
S1130A707BFA00283FF450AF82E7149BC3F136039E
S1130A80CCE709F1FF34099BA34208DBB9F1000F5D
S1130A90A3EB04040EDBDDF818804B46C1E7099B89
S1130AA0109AE31A0994DDF8188000241A444B467E
S1130AB01092B6E7069BA3EB09080023B1E7029E58
S1130AC071E5099A029970E5029672E5089B012B7B
S1130AD017DC009BABB9019BC3F313039BB9019BC8
S1130AE023F00046360D360536B1069B0126013348
S1130AF00693079B01330793109B002B7FF470AD83
S1130B001096012075E50026F6E73FF486AD1C3308
S1130B10069A1A4498440692079A1A4407927CE566
S1130B200346F4E7049B002B2BDC089B022B09DC17
S1130B3027E0B9F1000F1DDC089B022B1ADD3E46AD
S1130B40CDF81090049B002B7FF40CAE21460522B7
S1130B50584604F0F9FA01460446029805F090FF5D
S1130B6000287FF7FFADDDF80CA0312301360AF829
S1130B70013BFBE50D9B3E46CDF81090002B7FF426
S1130B8083AD039F2146029805F09EFE039B00F16E
S1130B903009049A07F8019BFB1A9A4240F3CB8070
S1130BA000230A220299584604F0CEFA0290E9E79B
S1130BB02A6905F10C010C300232920005F06FFE37
S1130BC001223946584604F021FC039BA8460546F9
S1130BD003F1010ADDE9032313440793009B03F0A7
S1130BE0010309930AF1FF3321460298049305F0A7
S1130BF06BFE4146069000F13009029805F040FF73
S1130C002A4621460746584604F06CFCC268014651
S1130C1002B3584604F076FA002F3ADA0122029918
S1130C20584604F0F3FB2146029005F029FF002802
S1130C3003DC29D119F0010F26D0B9F1390F1DD1E8
S1130C4032E02846C1E700BFD07500000000144020
S1130C50000024400A90029805F012FF0A990C90B3
S1130C60584604F04FFA0C9A5ABB089B53B9099B97
S1130C7043B9B9F1390F17D0002F05DD069B03F1F5
S1130C80310901E0002F2ADADDF810A00AF8019BEF
S1130C906EE5089B3B4304D1009B03F00103002B4A
S1130CA0BCD0B9F1390F36D1049F392307F8013B81
S1130CB0BA46013F1AF8013C392B5AD001333B7034
S1130CC056E5002F06DB089B3B4306D1009B03F04F
S1130CD0010313B9002AA1DCD6E7002AE1DC079B53
S1130CE057460AF8019C53452ED000230A22029944
S1130CF0584604F029FAA84502904FF000034FF03B
S1130D000A02414658460BD104F01EFA80460546B5
S1130D100AF1010A66E7DDF810A009F10109B5E757
S1130D2004F012FA2946804600230A22584604F0A9
S1130D300BFA0546ECE7049B4FF00008002BCCBFF0
S1130D401F460127039B1F4401220299584604F0C1
S1130D505DFB2146029005F093FE0028A8DC02D139
S1130D6019F0010FA4D1BA4617F8013D302BFAD07F
S1130D70FEE4039BBB429BD13123039A01361370DB
S1130D80F6E4219B002B7FF425AA014BFFF744BA1C
S1130D90B07400000348044B834202D0034B03B1F8
S1130DA018477047EC110020EC11002000000000EF
S1130DB0064B0749C91A891048BF0131491003D0AD
S1130DC0044B0BB101481847704700BFEC110020D9
S1130DD0EC1100200000000010B5064C237843B944
S1130DE0FFF7D8FF044B13B10448AFF3008001238D
S1130DF0237010BD7A15002000000000F07600007A
S1130E0008B5054B1BB105490548AFF30080BDE8A3
S1130E100840FFF7CDBF00BF00000000EC11002028
S1130E20F0760000A3F5803A704700BF174B002B03
S1130E3008BF134B9D46FFF7F5FF00218B460F4675
S1130E401348144A121A05F011FD0E4B002B00D062
S1130E5098470D4B002B00D0984700200021040038
S1130E600D000D48002802D00C48AFF3008003F0B9
S1130E70EDFF2000290005F0EBF803F0C9FA00BFEC
S1130E800000080000000000000000000010002026
S1130E90EC110020A8150020000000000000000054
S1130EA01FB5002304220221032001F011FF0321B6
S1130EB000230422084601F00BFF01213A2000F030
S1130EC04DFF012303220021022001F001FF012430
S1130ED0002223461146CDE90024022001F088FEB9
S1130EE04FF080621B4BC3F880211A6002F0E6FDCC
S1130EF0B0F57A7F24BF4FF47A74B0FBF4F4164B48
S1130F001C6064000F2C98BF0124144B88BF240973
S1130F101C6005F0F4FA0022114B1860114B1860A4
S1130F20114B1A6005F0BCF805F0BBF800220F4B1A
S1130F300F48CDE90223102300934FF47A72022361
S1130F400C49006805F01AFA01220B4B1A7004B020
S1130F5010BD00BF00E100E01412002010120020B8
S1130F600C120020081200200412002000001E4071
S1130F7098120020C06E00007B150020084AD2F8A9
S1130F802434D2F820241340DB0707D50122054B73
S1130F90C3F82024044A136801331360704700BF68
S1130FA000C0035000E003501812002010B52DEDCE
S1130FB0028B86B0294B1B780BB9FFF771FF05F044
S1130FC09EFA274B274A1B681268C31AB3FBF2F137
S1130FD002FB1133244A044612689A424FF0080374
S1130FE08CBF224A224AC2F8A03002F067FD4FF4B7
S1130FF07A725043B0FBF2F01E490B68E31A834245
S113100027D372B61C4B186862B61C4B0C601A6866
S11310101860821A07EE902AB8EE678AF1EE0E7A0B
S1131020C8EE278A059205F03BF805F03AF818EE69
S1131030900A03F005F8CDE9020118EE100A02F057
S1131040FFFFCDE900010E4B059A0E49186805F023
S113105095F906B0BDEC028B10BD00BF7B150020D6
S11310600C120020141200201012002000D0035093
S113107000E003500812002018120020041200207F
S1131080981200200B6F000010B5234C01F020F8DB
S113109001F00EFA236F23F0070343F003032367E1
S11310A005F0BCF81D4B00209B6A9B075EBF012224
S11310B01B4B9A62D4F8203123F0030343F002035C
S11310C0C4F82031D4F8243123F0070343F0020399
S11310D0C4F82431D4F8403123F0030343F002036D
S11310E0C4F84031D4F8603123F0030343F0020321
S11310F0C4F86031D4F8403223F0030343F0020310
S1131100C4F84032D4F8003223F0070343F002035A
S1131110C4F8003210BD00BF0080005000C0005071
S113112000E0005008B501F0D3FF01280ED1104BA8
S113113004205A6E4FF480230E49520358BF0E4ABE
S11311404B6601F51041086258BF536602F03AF845
S113115004F0B3FF01F0C4FF02F01EF801F0E2FF57
S1131160FFF792FF01F0CCFFBDE8084004F09CBFFC
S1131170008000500090005000A0005030B59DB099
S1131180284D09AC0FCD0FC495E80F0084E80F007B
S1131190222200210DF14A0005F068FB224B0124B4
S11311A011933823139305231593062317930823C8
S11311B0199307231B9303230E2200210DF116001C
S11311C08DF849408DF8483005F050FB4FF4801CF1
S11311D0164B1748CDE903C33E238DF814303F2343
S11311E08DF81530134B09AA069320230793124B4D
S11311F003A9009311AB8DF8214002F019F80446BD
S113120018B17C210D4804F0C4FF9DF822304FF43E
S1131210E130002B0CBF0321002104F097FF20468E
S11312201DB030BD6C6F00000000035A3400035A37
S1131230801200207C1500201C1200203A6F000050
S1131240014805F0FEB800BF8012002008B5012255
S1131250074B1A700022074B1A700422064B1A70AF
S11312601F22064B1A7001F0D7FF054B186008BD0A
S1131270E21100209C150020E1110020E011002063
S1131280981200200348044A0449121A921004F0E8
S11312906DBF00BFF0780000F0780000A8150020B2
S11312A008B500F02FF8FFF7EDFF124B12498B42FF
S11312B012D30020114B12498B4218D3FFF7B6FD0D
S11312C0186850F82240586840F822400132986863
S11312D08242F5D30C33EAE70022F8E71C6844F8AD
S11312E0220001325C68A242F8D30833E4E700220A
S11312F0F8E700BFF87600000477000004770000E8
S11313000477000010B54FF400414FF0FF30124B4A
S1131310124A9A60D3F8882042F47002C3F88820F5
S11313200F4A916601F1884101F5005210664FF6AB
S1131330DF7050660220C3F8D000BFF34F8FBFF3B5
S11313406F8F08244FF440330648C0F88041D360BF
S113135004600B6110BD00BF00ED00E00000000060
S11313600090005000E100E0014B1868704700BF96
S113137004100020084B1B6F03F00703022B04D05A
S1131380032B05D0012B05D0FEE7044B18687047EA
S1131390034BFBE703487047008000500410002013
S11313A00C100020002D310108B5FFF7E3FF054BB9
S11313B01B6FC3F303330133B0FBF3F0024B18602C
S11313C008BD00BF00800050001000200048704796
S11313D000B4C404014B1868704700BF0C1000200F
S11313E0054B1860054B1B6F03F00703032B01D15A
S11313F0FFF7DABF704700BF0C10002000800050D8
S113140000487047002D3101014B1868704700BF38
S1131410081000200346054A0549106803448B421E
S11314208CBF4FF0FF301360704700BF10100020D6
S11314300080002008B501213A2000F08FFC032130
S113144001230422002001F043FC002004F042FFA9
S11314500122214B4FF46070C3F8442400F0A8FC2F
S11314601E4B00F5D520D3F8F02000F2FC4042F0EA
S11314700102C3F8F020D3F8FC2042F08072C3F8D4
S1131480FC20174AA3F55D431A60164B0222B0FBF9
S1131490F3F0154B01381861C3F8F0204FF4807253
S11314A0C3F804234FF06043104A0020C3F8B02F60
S11314B00F4AC3F8802ED3F8002E42F48072C3F88A
S11314C0002EFF2283F82020D3F8002E22F480720D
S11314D0C3F8002E08BD00BF00D0035000ED00E0AB
S11314E0FF030040F8590D00000004E055CEACC5E0
S11314F00900010030B54FF06043D3F8802ED207C5
S113150015D501240B4D8440D5F8FC2042F080729F
S1131510C5F8FC20D3F8002E2243C3F8002E53F85C
S11315202020002AF0D003F82010002030BD112024
S1131530FCE700BF00ED00E02DE9F04F85B09A46CE
S1131540554B06461B780F461546DDF83C909DF832
S113155044B0DDF85080002B00F09780072A00F299
S113156096800E9B002B00F09280B9F1000F00F0E2
S11315708E80129BB3F5006F00F38980012803D19C
S1131580109B002B00F08380444B03EB05131B7B63
S1131590002B7ED0424C10220021684605F066F9EB
S11315A004EB45141022A7BB3946204605F05EF92A
S11315B043F210036380BBF1000F03D1E37843F0DF
S11315C00303E370364A0E9B02EB451CCCE90193FE
S11315D0129B6901581E9DF84C30C0F30A0003F0B9
S11315E003039B0643EA001E53582E48012E00EACB
S11315F003004EEA0003CDF800A0535017D0B8F111
S1131600000F2ED19CF8023068F304138CF80230DA
S113161027E00021204605F029F94FF44473638044
S1131620BBF1000FCED1E37843F03003C9E71323B5
S11316300CF1100ECCF80C309CE80F008EE80F0073
S11316406FF00301DCF81C20109B61F39F02012F53
S1131650CCF81C20CCF8143003D1CCF81890CCF87A
S1131660043000270D4A290102EB051342F80180DA
S1131670159A28465A60694622469F605E7301F0B7
S1131680F7FB384605B0BDE8F08F0748FAE707488E
S1131690F8E70748F6E700BF9D1500209C130020DB
S11316A09C1200200F80FFF3028000F0018000F004
S11316B0078000F038B5124B05461B78DBB1E0B16A
S11316C004F0C8FD0F4A00231146147B54B92B6063
S11316D001251A0101EB03131D738C5004F0C0FDA6
S11316E0204638BD0133082B02F11002EDD104F07D
S11316F0B7FD0548F5E70548F3E70548F1E700BFFE
S11317009D1500209C130020048000F0028000F04E
S1131710018000F038B504F09DFD002305460B4A16
S1131720147B6CB90133082B02F11002F8D101F0DB
S113173017FB074B28461C7004F092FD204603E07B
S1131740284604F08DFD034838BD00BF9C130020DB
S11317509D150020058000F010B50D4B04461B7844
S113176093B1072812D804F075FD0A4B03EB041358
S11317701A7B2AB100241C7304F072FD204610BDAC
S113178004F06EFD0448FAE70448F8E70448F6E775
S11317909D1500209C130020068000F0028000F0BC
S11317A0018000F013B5154B1868002301908DF8E3
S11317B0043004F04FFD124B1C7824B104F050FDAA
S11317C0104802B010BD01221A7004F049FD0E4BFE
S11317D001A81C731C7783F82C4083F83C4083F8E1
S11317E04C4083F85C4083F86C4083F87C400823C9
S11317F08DF8073001F0F2FA2046E2E78C6F000022
S11318009D150020038000F09C13002008B50A4AAF
S113181012785AB107280BD8084A02EB00131B7B35
S113182043B1002101F0BAFA002008BD0448FCE7E6
S11318300448FAE70448F8E79D1500209C130020AB
S1131840028000F0018000F0078000F008B50A4A29
S113185012785AB107280BD8084A02EB00131B7BF5
S113186043B1012101F09AFA002008BD0448FCE7C5
S11318700448FAE70448F8E79D1500209C1300206B
S1131880028000F0018000F0078000F008B50A4AE9
S1131890127852B107280AD8084A02EB00131B7BBE
S11318A03BB101F065FB002008BD0548FCE7054895
S11318B0FAE70548F8E700BF9D1500209C130020B7
S11318C0028000F0018000F0078000F00D4B1B78CF
S11318D093B1072812D889B10B4B03EB00131B7B80
S11318E073B10A4B1A6D01238340134214BF0123C1
S11318F0002300200B707047054870470548704767
S1131900054870479D1500209C13002000000450DA
S1131910028000F0018000F0078000F010B50B4A4F
S11319200C46127862B107280CD859B1084A02EB68
S113193000131B7B43B101F037FB2070002010BD66
S11319400448FCE70448FAE70448F8E79D1500203A
S11319509C130020028000F0018000F0078000F05A
S11319602DE9F041174B1F6D5B6D1F4000D5FEE75D
S113197001260025144CDFF85880374218D023681C
S1131980C8F85060A3B1A168284601316268A1601B
S11319909847637B012B0BD150B90C4B03EB4513D8
S11319A01A7B60F341021A731A7F60F341021A77BB
S11319B00135082D4FEA460604F11004DDD1BDE8D7
S11319C0F08100BF000004509C1300209C120020F2
S11319D000200450044BD3F88420D206FBD4D3F85F
S11319E08400C0F3811070470040005038B5104B9C
S11319F00546D3F820310C4603F00303022B0BD029
S1131A00032B0DD0012B0FD1FFF7AEFC052305B13D
S1131A10286004B1236038BDFFF7DCFC0323F6E73C
S1131A20FFF7EEFC0223F2E701230020EFE700BFFB
S1131A3000800050F7B50027114B0197D3F880417F
S1131A40064604F00304012C0D4608D0022C12D0E3
S1131A5041F2B1310B4804F09CFB3C4604E03946AA
S1131A6001A8FFF7C3FF0F240EB1019B336005B13A
S1131A702C6003B0F0BDFFF7C3FC0190F4E700BF96
S1131A8000800050906F000038B51A4B0546D3F81B
S1131A9024010C4600F00700062821D8DFE800F0F6
S1131AA0280410181C0C1400FFF75EFC052305B174
S1131AB0286004B1236038BDFFF756FC0623F6E71F
S1131AC0FFF788FC0323F2E7FFF784FC0423EEE727
S1131AD0FFF796FC0223EAE704F053FB0723E6E74B
S1131AE0054840F6A87104F054FB00231846DEE7CD
S1131AF00123DCE700800050906F000038B5104BE4
S1131B000546D3F840310C4603F00303022B0BD0F7
S1131B10032B0DD0012B0FD104F035FB092305B1A4
S1131B20286004B1236038BDFFF76EFC0823F6E794
S1131B3004F02CFB0B23F2E701230020EFE700BFA6
S1131B400080005038B5164B0546D3F800020C4609
S1131B5000F00700042819D8DFE800F020030B0F79
S1131B60130004F010FB092305B1286004B12360BD
S1131B7038BDFFF749FC0823F6E704F007FB0B2305
S1131B80F2E7FFF711FC0E23800AEDE7054841F266
S1131B906F4104F0FEFA00231846E5E70123E3E76A
S1131BA000800050906F000038B5124B0546D3F802
S1131BB040320C4603F00303022B0BD0032B0DD051
S1131BC0012B0FD104F0DFFA092305B1286004B119
S1131BD0236038BDFFF718FC0823F6E704F0D6FAB3
S1131BE00B23F2E7044841F2FA3104F0D2FA00235D
S1131BF01846EAE700800050906F000038B5104B9B
S1131C000546D3F860310C4603F00303022B0BD0D6
S1131C10032B0DD0012B0FD104F0B5FA092305B124
S1131C20286004B1236038BDFFF7EEFB0823F6E714
S1131C3004F0ACFA0B23F2E701230020EFE700BF26
S1131C400080005010B40F4C0B46D4F8204204F02E
S1131C500304012C0ED0022C10D008B10021016025
S1131C600BB100221A6040F6D27107485DF8044BAC
S1131C7004F08FBA5DF8044BFFF7B8BE5DF8044B6F
S1131C80FFF73CBF00800050906F000010B5B0F526
S1131C90207F34D009D8B0F5007F2AD003D898B17A
S1131CA0B0F5C07F10D0002421E0B0F5607FFAD1F8
S1131CB0154BD3F88030C3F301149B0617D5032CBE
S1131CC015D040F295210FE00F4B1C6F230B13F03E
S1131CD00E0FC4F303340AD0072C08D00F2C06D0FF
S1131CE0032C04D040F28521084804F052FA601C09
S1131CF010BD054BD3F89040C4F30464F7E7024BDE
S1131D001C6FC4F38024F2E700800050906F000041
S1131D1010B54FF400320E4B04469A660020FFF7CC
S1131D20B5FF604341F671320A4C0B4BA04294BF9D
S1131D3000200120D969DA639A6822F4401242EA49
S1131D4000529A60CA0344BF0022DA6310BD00BF88
S1131D5000900050005A62020000035070B546091A
S1131D6004460D460ED140F22F310D4804F011FA0D
S1131D70334604F01F047DB103F580530122A240D1
S1131D801A6070BD012E05D0064B074A022E18BFFB
S1131D901346EEE7054BECE703F50053EEE700BF0F
S1131DA0906F000068800050608200506480005092
S1131DB030B585B0002380280446019374D02AD816
S1131DC0002877D0A0F12004412C32D8412C30D8FF
S1131DD0DFE804F070737073888888887373923FA7
S1131DE0A8653F7373732F2F2F2F2F2F8D57737366
S1131DF073B2AD732F2F2F2F2F2F2F2F2F2F2F2F66
S1131E002F702F707070882F2F2F2F2F2F2F2F2F81
S1131E102F2F2F2F7070B0F5806F63D024D8B0F5BA
S1131E20007F55D00BD8B0F5807F6AD0B0F5C07F65
S1131E3040D040F29441434804F0ABF937E0B0F5A8
S1131E40607F45D0F5D8B0F5207F36D0B0F5407F1F
S1131E50EFD1FFF7A9FA04464FF42070FFF716FFFD
S1131E60B4FBF0F4640831E0B0F5C06F5AD00DD87B
S1131E70B0F5A06F3BD0B0F5B06F3DD0B0F5906F2A
S1131E80D7D1002101A8FFF7FFFD10E0B0F5E06F06
S1131E904DD0B0F5F06F4FD0B0F5D06FC9D100215F
S1131EA001A8FFF74FFE02E0FFF764FA01900198E2
S1131EB005B030BDFFF778FAF8E7FFF775FA044686
S1131EC04FF42070FFF7E2FEB4FBF0F40194EEE768
S1131ED0FFF750FA05462046FFF7D8FEB5FBF0F5AC
S1131EE00195E4E7002101A8FFF780FDDFE7002169
S1131EF001A8FFF7A7FEDAE7002101A8FFF79AFD82
S1131F00D5E702934FF0E0231B695B0705D5FFF784
S1131F104BFA0290029B0193C9E703A902A8FFF7B9
S1131F20EDFDF7E7002101A8FFF7E8FDBFE7002179
S1131F3001A8FFF739FEBAE7002101A8FFF75EFE0A
S1131F40B5E700BF906F000008B58020FFF730FFB1
S1131F50034B98429EBF4FF48032024B1A6708BD70
S1131F60005A620200A000501FB50023B0F5807F24
S1131F7001937FD027D8382800F09C800BD82438D0
S1131F80092810D809280ED8DFE800F06F6F6F6FAA
S1131F900D0D670D3685522867D007D83D283AD0F5
S1131FA03E2800F08C8040F2795152E08028FAD12A
S1131FB0454B1B6F03F00703013B032B47D8DFE8B6
S1131FC003F044413F75B0F5D06F64D019D8B0F533
S1131FD0A06F6FD00AD8B0F5806F46D0B0F5906F7F
S1131FE0E1D1002001A9FFF74FFD3AE0B0F5B06F51
S1131FF033D0B0F5C06FD6D1002001A9FFF77EFD24
S11320002FE0B0F5006FECD00AD8B0F5E06F56D0F1
S1132010B0F5F06FC7D1002001A9FFF7EFFD20E074
S1132020B0F5086FBFD1284BD3F8003103F0030398
S1132030022B35D0032B37D0012B39D1FFF7CAF946
S1132040032300E0052301930BE00223FBE740F2A6
S1132050C6411E4804F09DF803E0002001A9FFF7E3
S1132060E9FC019805B05DF804FB002001A9FFF725
S1132070BDFCF6E702934FF0E0231B695B0705D52F
S1132080FFF792F90C230393039BDCE703A902A84F
S1132090FFF734FDF8E7002001A9FFF753FDE0E75F
S11320A0FFF7B2F90823CEE704F06BF80723CAE779
S11320B00123C8E7002001A9FFF7C4FDD1E70020F0
S11320C001A9FFF771FDCCE700800050906F00007C
S11320D04FF40022034B5A66012203F580439A62AF
S11320E0704700BF00900050F8B5036804460F2BFA
S11320F004D940F66D316C4804F04BF863680F2B3B
S113210004D94FF43761684804F043F8A3680F2BEF
S113211004D940F67331644804F03BF8237B0F2B59
S113212004D940F67631604804F033F8637B0F2B12
S113213004D940F679315C4804F02BF8A37B3F2B9B
S113214004D940F67C31584804F023F8E37B3F2B54
S113215004D940F67F31544804F01BF82369032B5B
S113216004D940F68231504804F013F86369032B14
S113217004D940F685314C4804F00BF8E369012B8F
S113218004D940F68831484804F003F88020FFF76A
S1132190EBFE032800F087804FF40022434B02211A
S11321A05A6645F60E03424AC2F88030414B9962A2
S11321B0012103F580539962936DD903FCD4D4E9CA
S11321C000131B0543EA0163E17B94F820500B43A1
S11321D0217BE77E43EA0143617B6D0143EA0133DE
S11321E0A17B43EA811313619169D4E904031B06BB
S11321F043EA806301F000410B43A17E94F823007D
S11322000B43217E43EA0143617E43EA0123936148
S1132210136AE66923F00D0394F8221043EA870356
S1132220002E2DD11362966A94F8213045EA0313E7
S113223026F033052B4343F0010393621E4D1C4BE0
S11322409A6D35EA0202FBD102221A4DAA621A657E
S11322509A6D5200FCD41A69A56822F4700242EA0D
S113226005521A614FF00042124B9A6119B90222C9
S113227003F580539A6278B90122104B9A620BE0FD
S1132280334343F008031362936A23F03303034395
S11322902B4343EA4103936294F824301BB1044B6B
S11322A0074AC3F88020F8BD906F000000900050EA
S11322B000C0005000D000500300014000E0005076
S11322C0F1A7FFFF014B93F9000070479E15002012
S11322D010B543680446072B04D940F6B3512A4885
S11322E003F057FFA368032B04D940F6B5512648E1
S11322F003F04FFF2378032B04D940F6B75122484B
S113230003F047FF94F90130002B04DA40F6B95189
S11323101D4803F03EFF4FF480011C4A6378516668
S11323204FF4D151022002F5B832516218494F2BB3
S113233048604FF0010028BF4F2301F580514860E9
S11323401169C903FCD4217843EA01235361D4E918
S113235001131B0143EA0123617B0B43217B43EA05
S113236041039360E37BA17B1B0143EA4113617C3E
S11323700B43217C43EA41035360A37C13B16FF404
S1132380D153536210BD00BF906F00000090005005
S113239000100250014B1880704700BFDE1100206E
S11323A0014B1880704700BFDC11002010B5B0F558
S11323B0207F65D00ED8B0F5007F4FD003D800B38E
S11323C0B0F5C07F1DD040F21231BDE81040344852
S11323D003F0DFBEB0F5607FF5D14C1E012C06D9A9
S11323E0042904D04FF43D712D4803F0D2FE2D4A48
S11323F0D2F8803023F0300343EA0413C2F880306B
S113240010BD4C1E012C0AD9102903D8264BCB40F1
S1132410DB0704D440F2C721214803F0BAFE03F0DD
S1132420EAFE03F0F6FE4FF48031204B1D4A196793
S1132430136F23F4704343EA04331367FEF7B4FFC6
S11324400446FFF7C7FAC0F10201204603F0DBFEA1
S113245000F03EF8BDE81040FFF776BD4C1E1F2C7F
S113246004D940F206310E4803F093FE0D4AD2F827
S1132470903023F0F85343EA0463C2F89030BFE786
S11324804C1E012C04D94FF44371054803F081FE1E
S1132490044A136F23F4806343EA84231367AFE78A
S11324A0906F000000800050100101000090005067
S11324B008B50121022000F027F803F09CFE03F088
S11324C0A8FE4FF48032014B1A6708BD00900050FB
S11324D008B54FF4C070FFF76BFCBDE80840044931
S11324E0884294BF012102214FF42070FFF75EBFA0
S11324F080F0FA02034A0179D36E23F030030B43D0
S1132500D366704700400050F8B50446244BD3F816
S11325108420D006FBD4D3F88430C3F381139C42C7
S11325203CD0FEF727FF012C05460BD11D4B9842EA
S113253004D940F292711C4803F02BFE0121284675
S113254003F061FE03F07FFE4FF00072174B074665
S11325505A66204603F087FE4FF48063104E621ED5
S113256093403367736E9A0103D4D6F884309B0684
S11325700AD5384603F06BFE022C0FD12846BDE87D
S1132580F840002103F03FBED6F884309906E9D51F
S11325904FF4F461044803F0FCFDE3E7F8BD00BF29
S11325A000400050005A6202DC6F000000600050DE
S11325B010B50C4608B9FEF7DDFE074B21461B7823
S11325C03BB1064B984204D80120BDE81040FFF708
S11325D09BBF0220F9E700BF9F150020005A62024A
S11325E038B54FF00042264B26495A6601224A600C
S11325F04AF6CD3103F50B235D6C1964154030BBED
S11326009968C9070BD4002401221F4B5A6015B1E5
S11326101E4B1F4A1A6403F027FE204638BD1A4990
S11326208A601C4AD96ACC0705D4904201D1072498
S1132630EAE70130F6E79042E5D1F8E70132DC6AD7
S113264014F0080406D08A42F8D10724DFE70022F8
S11326501049F4E78A42F8D020220B4B0B495A6206
S11326600122A3F580539A6023460A4A486A8006E9
S113267003D49342E9D00133F8E79342C7D1E4E7A6
S1132680009000500050095000600950004009506B
S11326903254FFFF40420F0038B54FF00042174B51
S11326A0174C5A66012203F50C235A604AF6CD33BF
S11326B0656C2364437893401343124AD363C3780D
S11326C08178A2689B0043EA011322F07402134349
S11326D0A3600279837943EA022323614279C379AF
S11326E043EA022363610078FFF77AFFEB0744BFF4
S11326F0054B236403F0B8FD012038BD0090005061
S113270000400950004000503254FFFF10B5044609
S113271003F0AFFD002341F202020849E360A36025
S1132720226104F50052E3616361A3612362636281
S1132730E362A3645164A36210BD00BF7F370C0140
S113274038B5154B044698420D4604D04FF4B37186
S1132750124803F01EFD25B92046BDE8384003F0B9
S113276088BD012204F580535A6040F2FF7120466F
S113277005F00F0203F079FD2263782103F075FD63
S113278005F001036A0748BF43F00203226C02F01C
S113279003029A42FAD138BD0000035A287000009F
S11327A0F8B506460C46154622B94FF4097143485C
S11327B003F0EFFC424B9E4202D184B938240AE074
S11327C040F227213D4803F0E4FC44B940F276315D
S11327D03A4803F0DEFC2046FFF7EAFA0446736841
S11327E0012B04D040F25921344803F0D2FCB368E1
S11327F003F0E003402B42D009D893B1202B1AD028
S113280040F29B21BDE8F8402C4803F0C2BC602B89
S113281042D0802BF4D105EB4503A34247D80123D2
S11328200DE0B5EB141F04D940F28121234803F0D5
S1132830B0FC102303E0B5EBD40F1AD808236B4384
S11328406401B4FBF3F41F4F203CB7EBC40F4FEA11
S1132850C40504D240F2A621184803F09AFC30467D
S11328603D40012103F001FDB562BDE8F84003F0ED
S1132870FCBC40F28621114803F08BFCDEE7062302
S1132880B4FBF3F3AB4201D30623D8E740F28B2128
S11328900A4803F07EFCF7E7B5EB940F01D8042354
S11328A0CDE74FF42471054803F073FCF7E740F2D9
S11328B09521024803F06DFCB1E700BF28700000C9
S11328C00000035AF8FF7F0070B5436804460D46C4
S11328D016461BB140F2FF7103F0C7FC2046FFF718
S11328E015FFE9896B7B22690B43298A22F44C5238
S11328F00B4322F0030213432361A2682B7B297E3E
S113290022F0804222F0E2020B4313436A6913432C
S1132910A360AB681BB9A36843F00043A360EB69F1
S1132920002B57D0987A1A7A4004A16840EA825062
S11329303F4A0A4010439A8802F4C04210435A782E
S113294040EA82005A7B40EAC2009A7B40EA0210C5
S11329509A7840EA8220A060E168D3E9042021F457
S1132960D81121F4C06102430A43997942EA8122D1
S1132970D97942EA4122E2601A78012A05D1E26853
S113298042F00402E2602B4A06E0032A3ED1E268E8
S113299042F00402E260284A0121C2F8C0105A7AC7
S11329A004F580510A621AB1E26842F40062E260FE
S11329B0DA7A4AB1E268214942F40042E2601A7BC1
S11329C002F00F02C1F88020E269DB7B22F00302EF
S11329D01343E36136B196F8203004F58051CBB14E
S11329E001238B6105212046FFF7AAFEAA681AB1CC
S11329F020466968FFF7D4FE20462978FFF7A0FE39
S1132A00236CDB4313F4405FFAD170BD023A012A10
S1132A10C1D9B8E7626996F8223096F8210022F00D
S1132A2009020343134343F001034B61DAE700BF98
S1132A30E39BBDFF00E4035000D403500090035017
S1132A4038B5294B054698420C463FD119B98C211B
S1132A50264803F09EFB3820FFF786FA083808283A
S1132A603DD8234B0341DB0739D4637B032B03D9C4
S1132A70AA211E4803F08DFB237B802B03D0AC21BD
S1132A801A4803F086FB6369B3F1804F03D0AE218B
S1132A90164803F07EFB238A23F400539BB2B3F55C
S1132AA0805F03D0B021114803F073FBA368013B9E
S1132AB0B3F5165F03D3B2210C4803F06AFB214639
S1132AC02846BDE838400022FFF7FEBE8A210748A9
S1132AD003F05FFB1CB98C21044803F05AFB9E21D0
S1132AE0024803F056FBC0E70000035A28700000B8
S1132AF0F4FEFFFF38B5114B054698420C4603D04F
S1132B0070210F4803F045FB1CB972210C4803F0F7
S1132B1040FB237B802B03D17621094803F039FB4A
S1132B20637B032B03D97921054803F032FB21464B
S1132B302846BDE838400022FFF7C6BE0000035A0D
S1132B402870000070B51F2904460D46164603D9A7
S1132B509121064803F01DFB2EB104F58054012396
S1132B60AB40236070BD04F50054F8E777700000B3
S1132B7038B5032804460D4605D80B4B33F81030FE
S1132B80CB40DB0704D440F22D41084803F001FB9D
S1132B9030220123544341F2100204F1A044AB401B
S1132BA004F57034A35038BD5E710000C37000009A
S1132BB038B5032804460D4605D80B4B33F81030BE
S1132BC0CB40DB0704D440F2FE31084803F0E1FABD
S1132BD030220123544342F2100204F1A044AB40DA
S1132BE004F57034A35038BD5E710000C37000005A
S1132BF02DE9F84F032807460E46144698469DF8DB
S1132C0028A09DF82C9005D8274B33F81030CB40E2
S1132C10DB0703D4BF21254803F0BBFA86EA04038B
S1132C20032B03D9C121214803F0B3FA072C4FF039
S1132C30030506F0030625D84FEA840B05FA0BF5C5
S1132C4029461B4807FA0BF203F035FB29461948BD
S1132C5006FA0BF203F02FFB424621461648FFF713
S1132C6071FF524621461548FFF76CFF0123144AB1
S1132C70A340C2F8203421464A46BDE8F84F114823
S1132C80FFF760BFA4F1080B4FEA8B0B05FA0BF5B5
S1132C9029460D4807FA0BF203F00DFB29460B48B1
S1132CA006FA0BF2D6E700BF5E7100001071000057
S1132CB000C4035008C4035010C4035014C4035088
S1132CC000E0035024C4035004C403500CC4035054
S1132CD0F8B5032804460D4616461F4605D81C4B76
S1132CE033F81030CB40DB0704D44FF4B0711948EB
S1132CF003F04FFA26B129462046CFB1FFF738FF3B
S1132D0004EB4403072D4FF00F014FEA031312D8CD
S1132D10A80006FA00F281400F48184403F0CBFAE9
S1132D20AEB92946204677B1BDE8F840FFF720BF89
S1132D30FFF73EFFE4E7A5F10800800006FA00F281
S1132D4081400648E9E7BDE8F840FFF731BFF8BD28
S1132D505E7100001071000004C003500CC00350E9
S1132D6010B54FF400120B4BC3F88020BFF34F8F04
S1132D70BFF36F8F0024FF22074B21465C652020A0
S1132D809A625C60FEF7EAFF2146BDE8104021200C
S1132D90FEF7E4BF00E100E00000045038B5072866
S1132DA004460D4603DD7721084803F0F2F91F2C91
S1132DB003D99121064803F0ECF9064A064B002D8D
S1132DC008BF13460122A2401A6038BD6671000094
S1132DD077700000401004504020045010B50446A1
S1132DE018B991211F4803F0D4F923781B0613F076
S1132DF0604F03D092211B4803F0CBF9E3780F2BEB
S1132E0003D9A321174803F0C4F901212020FEF7B8
S1132E10A5FF01212120FEF7A1FF0122124B5A60D8
S1132E20227812069A606178A27842EA01429A6195
S1132E30FF229A6200229A631A644FF000425A6594
S1132E404FF0FF324FF4001103F500531A65074A9F
S1132E50C2F88011E3781B01DBB282F815331160EC
S1132E6010BD00BF667100000000045000E100E0E6
S1132E702DE9F0410126C3B2072805460C469046C9
S1132E8006FA03F603DDEC21354803F082F91CB998
S1132E90ED21334803F07DF9236823F47C1323F0F8
S1132EA00F031BB1F0212E4803F073F9A37A1B041E
S1132EB013F47C0F04D040F20911294803F069F996
S1132EC0E37A1B0513F07E6F04D040F20B11244803
S1132ED003F05FF9237B5B0513F0FE5F04D040F23F
S1132EE00D111F4803F055F91E4B1F4F1E65226834
S1132EF003F5005343F82520302202FB0575637B5C
S1132F002B66E37AA27A1B0543EA0243227B43EA57
S1132F104253EB6528F003032B6703F09BF97B6DA9
S1132F2033437B65237A13B13B6C33433B64637A4D
S1132F3013B1BB6B3343BB632279A37943EA0243E6
S1132F40084A93616179E37943EA014307498B6154
S1132F50054B56639E64BDE8F04103F081B900BFA0
S1132F60667100000020045000000450001004505A
S1132F7010B50124C3B2072804FA03F404DD40F2B7
S1132F809711074803F005F903F064F9054B5A6DEE
S1132F9022EA04025A659C62BDE8104003F060B95D
S1132FA0667100000000045010B50124C3B2072864
S1132FB004FA03F404DD40F2B5110A4803F0E9F819
S1132FC003F048F9084BDA6A224208D15B6B9C4350
S1132FD00CBF0124002403F043F9204610BD002453
S1132FE0F9E700BF667100000000045038B50228FC
S1132FF005460C4603D94C210C4803F0CAF8E37883
S1133000627821785B0143EA820322790B4343EA25
S113301002130C226A4302F1B0421363012902BF76
S1133020A278034B43F8252038BD00BFB3710000DC
S1133030E880035008B54FF0B0435A686AB958B1F4
S11330405B680BB103F047F901210D4B596003F0A4
S113305042F94FF0B043D96008BD5B680BB103F08F
S11330603AF90028F0D103F036F94FF0B0430222C8
S1133070DA6003F030F90122024B5A60ECE700BF3A
S1133080001000580020005810B54FF0B0414B68B4
S11330900BB103F020F901220B4BC4785A608378FA
S11330A0934043EA840344782343047943EA0413B2
S11330B0447943EAC4038B60044B5A600378C3F138
S11330C00203CB6010BD00BF002000580010005860
S11330D0024B1868C0F30740704700BF0080E00F40
S11330E007B56B46054A1068516803C36846FFF785
S11330F0D3FA002003B05DF804FB00BF00720000A7
S113310013B50024064A6846536F43F0010353671E
S113311000948DF80440FFF7EDF9204602B010BD8D
S11331200040005030B58BB06C46184D0FCD0FC425
S11331300FCD0FC495E8030084E80300144BD3F8C3
S11331404C2112031DD5A3F5FE431C884FF6FF73D3
S11331509C4208BF8C248DF81940FFF7B3F8204433
S113316080F308008DF818000A48FEF739F968461C
S1133170FEF7BAFF4FF4FA70FFF712F900200BB014
S113318030BDD3F85041E4B2E5E700BF0872000057
S11331900080E00F00F0490230B587B0084D01AC63
S11331A00FCD0FC42B6801A8236019238DF80530B7
S11331B0FFF78EF86420FFF7EDF8002007B030BD6C
S11331C03072000010B56FF0040350210A480B4C14
S11331D013F0800F03F1010207D12344402A83F83E
S11331E000131346F4D1002010BD03F00F03043B79
S11331F0034419761346EBE700ED00E000E100E03C
S113320010B5044603F01FF8024B1C6003F01FF8CE
S1133210002010BD1C14002010B503F014F8034B5B
S11332201C6803F014F8204610BD00BF1C140020D5
S11332302DE9F0438DB01C4606AB06468946184678
S1133240904600211822149D03F010FB22790346B6
S11332500AB18DF81820C8F81C3063790127C3F12E
S11332600203DBB2CDE90333644B30460293644B73
S11332704A460193002329460093624B8DF81E7041
S113328000F0E2FA0646002840F09280A36839462E
S1133290EB63A3693A20EB64237DDFF8749185F82E
S11332A0483023696B64237B85F84030236A6B655F
S11332B0237F85F85030A36AEB6594F8243085F8B1
S11332C058302368AB63FEF749FD3B46042221696D
S11332D0207BFFF7FDFC3B460222A169207DFFF71E
S11332E0F7FC88F8006085F860603946A068FEF74E
S11332F035FD6379394633BB4FF4C060FEF72EFDCC
S1133300D9F82032414623F0030343F00203206836
S1133310C9F82032FFF794FB02223B4B2169C3F822
S1133320C020227B42EA0142C3F8D020A169227D59
S113333042EA0142C3F8CC202379032B5BD8DFE8AF
S113334003F02E193B544FF48060FEF707FDD9F8C3
S11333502032414623F0030343F00103C9F820322D
S11333602068FFF7C7FB95F8603043F0040385F845
S11333706030D1E7002795F8603043F0010385F809
S1133380603002220023216A207FFFF7A1FC226A19
S1133390237F43EA02431D4AC2F8C43097B904228A
S11333A0AB6B052103F5805320689A64FFF7C8F9D5
S11333B030460DB0BDE8F08395F8603043F0020369
S11333C085F8603000230422A16A94F82400FFF7F2
S11333D07FFC01230D4AA16AC2F8C03094F824305E
S11333E043EA0143C2F8C830D9E795F860300127B1
S11333F043F00303C3E72326DAE700BF9763000023
S1133400076400003764000000C4035000D4035074
S11334100080005010B50020144602F064FF02281A
S113342004D018B1C321024802F0B3FE204610BDF7
S113343044720000034B0222186800238068194676
S113344001F0FCBB2010002038B53022037A04467A
S1133450534303F1A04303F58023DD6ED0E9032336
S113346013449D4201D8AA4204D94FF43E71054841
S113347002F08FFED4E9030303449D4218BF28469B
S113348038BD00BFAF72000030B587B014460546A2
S11334901046FFF7D9FF6369024683423CBFD4E973
S11334A003315B181B1AABB1124904940391002138
S11334B0CDE90131012300932846D4E9001302F039
S11334C080FE20B14FF434710B4802F062FE0020FC
S11334D007B030BD0122627694F82D20002AF6D080
S11334E084F835301321E369204698472046636AFF
S11334F09847ECE789340000AF7200002DE9F047EB
S113350088B004460F461646984602F0A3FE81464C
S1133510002E00F0AD80237E03F0FF02002B00F0AC
S1133520E0802046FFF790FF63698246984206D107
S1133530637E23B940F27F316B4802F02AFE65694D
S1133540AA459DBFD4E903329B185D1BAAEB050570
S1133550B54228BF354602F07DFE94F82D308246F0
S1133560002B40F096802A463846616903F097F9AB
S113357063692E462B4463612CE06069037803F091
S1133580FD01112940F08280216B884205D1A3F10D
S113359011014B424B4184F83430013E6369216B85
S11335A001328B4203F1010308BF23636361954237
S11335B0E3D1D4E90323216B1344994208BF226366
S11335C0216B8A4201D88B4204D84FF46D7146486E
S11335D002F0DFFDD4E9032361691344994208BF73
S11335E0626161698A4201D88B4204D84FF47171D7
S11335F03D4802F0CEFD0023207A6376FEF706F9FB
S113360020B140F21131384802F0C3FD2046FFF7E3
S11336101BFF636983423FD10023E568237694F856
S11336202D30656103B125632046636A98472F4BAB
S1133630049403930023029323692A4601930123EC
S1133640009363682168207A02F0BBFD20B140F248
S11336502D31254802F09DFD207AFEF7F7F820B1C0
S113366040F25131204802F094FD504602F0F8FD3A
S11336704846C8F8006002F0F3FDD8F80030002B8B
S11336800CBF1B20002008B0BDE8F08707F8013B01
S113369084E72E4600228AE70123207A23760DF15F
S11336A01E01FEF73BF920B14FF450710E4802F0B1
S11336B070FD9DF81E30207A002BCDD00DF11F0136
S11336C0FEF704F920B140F24631074802F061FDEB
S11336D09DF81F10207A0029BED12246FFF7D4FEA0
S11336E0BAE71646C4E700BFAF7200008934000091
S11336F070B504460568FFF78FFD844202D10020AF
S1133700FFF77EFD95F93630002B11DB012203F023
S11337101F015B099B0003F160438A4003F5614389
S1133720C3F88021C3F88020BFF34F8FBFF36F8F9E
S1133730287AFEF7ABF820B14FF4ED71104802F08F
S113374028FD287AFEF708F820B14FF4EF710C48F1
S113375002F01FFDFDF7DEFF38B10A4B984204D09A
S11337604FF4F171064802F014FD00232846C4E921
S11337700033C4E90433A360AB6ABDE87040184762
S1133780AF720000058000F02DE9F84304460D46B1
S113379090F82C80DFF8AC908E18AE4228D094F8C4
S11337A02D3083B102F056FD237E07461BBB226BEE
S11337B063699A4204D040F2F911484602F0E9FCE8
S11337C0384602F04DFD94F83430002BE5D0B8F1C2
S11337D0000F06D02B780A2B03D10D212046E36974
S11337E098472046E36915F8011B98470028D4D070
S11337F00020BDE8F8832046FFF726FEE168013883
S1133800884238BF2069D4F830C03CBF00F1FF3093
S1133810401803469C450BD013F80129112A01D006
S1133820132A07D1A2F111035A425A4184F83420D1
S11338302063C5E7994282BF236903F1FF335B1814
S1133840E8E700BFAF720000F0B587B00C4606464B
S113385015460021382220461F4603F007F895E854
S1133860030000232A692376EB6884E80300C4E993
S113387004232A7DE36084F82C20AA7D236301239A
S113388084F8343084F835300C9B84F82D2023627E
S11338900D9BE76163620E9BA3622B7A84F836303A
S11338A0204B34607360204BB360204B3361204B5A
S11338B07361204BF360FDF775FF30B11E4B9842E6
S11338C003D01024204607B0F0BD002104F1080005
S11338D0FDF7F0FE0028F4D10127184B0494CDE93C
S11338E002032369009701936368E2682168207AE0
S11338F002F067FC04460028E3D195F90830002B58
S11339000BDB03F01F025B099B0003F1604397404C
S113391003F56143C3F880711F603046FFF770FC04
S1133920D0E700BF89370000FD340000F3640000D5
S1133930F9640000F1360000038000F089340000CF
S113394030B50E4C416123688BB9206083600DE073
S1133950891A9A681D4641616AB113465A698A42B6
S1133960F6D935B1A860521A83605A6130BD00257A
S1133970F4E72060F7E798608260F7E728140020F6
S113398038B502F0CAFD0025084B094C1A682368B3
S1133990C31A2AB123B15169994203D3C91A516197
S11339A0206038BD55615B1A9268F2E72814002044
S11339B02414002038B5134D2B685B6993B1124A67
S11339C0022014681C4402F0AFFD204600F068F9A0
S11339D000230E492A680B70D088800709D501237B
S11339E00B7038BD022002F09FFD022000F0A2F906
S11339F0EEE79268002AF4D050690344012BEBD916
S1133A00EFE700BF2814002024140020A115002093
S1133A1000220C490B687BB183420AD183687AB1D6
S1133A20936083681BB15A6941690A445A61002052
S1133A3070471A469B68EEE70028EFD002207047D3
S1133A400B60EEE72814002070B502F003FC144E5E
S1133A5005463478FCB9134B1C60134B1C60134BA4
S1133A601C8000F0D9F8012002F05EFD02F068FD30
S1133A700F4B0246186020B9284602F0F1FB2320C0
S1133A8070BD234640F2E7310A4800F031FB0A4B8F
S1133A90186001233370284602F0E2FB0020EFE7B0
S1133AA0A2150020281400202414002078150020DA
S1133AB02C14002018FCFFFF20140020014B186870
S1133AC0704700BF2C1400202DE9F047C2070446BC
S1133AD00BD54D4A138801339BB21380FFF750FF77
S1133AE04A4B1B680BB1FFF765FFA30740F18A80BF
S1133AF002F0B0FB4FF0000905464E46FFF740FFC9
S1133B00C846424F3C680CB163698BB10022404BFC
S1133B10012E1A7003D119F0020F18BF1E70002C69
S1133B206CD0FFF747FF2846BDE8F04702F098BB8A
S1133B3023465A693AB91A792179914288BF1C46B9
S1133B409B68002BF5D1284602F08AFB2569DDB17C
S1133B5002F0E3FCA269A0EB02094FEAE9734D45C8
S1133B6078EB030311DA23691344A361E368B4F81F
S1133B700690013613B120462168984702F06AFB8B
S1133B800546FFF7FDFEBDE7A94602F063FB82464A
S1133B902046FFF73DFF504602F062FB2369002BED
S1133BA0E4D0B5EB09054FEAE97363EB4303002B5B
S1133BB004DA40F22B51174802F0EBFAA38B33B12D
S1133BC0E28B13449BB2B3F57A7F0FD2E38302F006
S1133BD041FB814629462046FFF7B2FEA3692269CC
S1133BE048461344A36102F03BFBBFE7A3F57A7395
S1133BF0E383A369013D013BA361E8E7022000F0F0
S1133C0081F890E7BDE8F08778150020281400209B
S1133C10A0150020107300001FB500241D4B0121C6
S1133C2018689A880290D3F806009B7A00903E2088
S1133C30ADF80C208DF80430FEF790F88DF80840AC
S1133C4002F069FC8DF80C0002A8FFF71DFA694622
S1133C5001208DF80040FFF7C9F94FF0B04240F25F
S1133C60FF31936923F47F7323F0030393610A4BB9
S1133C705961936A13F00803FBD113620120FFF723
S1133C80D9F94FF48052054BC3F880211A6004B06F
S1133C9010BD00BF707300000020005800E100E078
S1133CA010B5044602F0CFFA4FF0B042936A1907F8
S1133CB0FCD4136A116C5269520604D4CA1A032A3A
S1133CC001D88B420ED1E21A022A98BFDC1CB4F14F
S1133CD0FF3F38BF013C4FF0B0431C649A6942F087
S1133CE040029A6102F0B3FA054A13783BB14FF0EF
S1133CF0B041CB6B43F00203CB630023137010BDC0
S1133D00E3110020820700F001030AD50121084ACB
S1133D1043F0400311704FF0B041CA6B22F003022C
S1133D20CA634FF0B0418A6922EA03038B6170478A
S1133D30E3110020830742BF4022014B5A617047C0
S1133D400010005810B502F085FA4FF0B043044655
S1133D505B695A06074A03F0010003F0510348BFA8
S1133D6040F002005361FFF7AFFE2046BDE810406B
S1133D7002F076BA0020005881F0004102E000BF52
S1133D8083F0004330B54FEA41044FEA430594EA17
S1133D90050F08BF90EA020F1FBF54EA000C55EA52
S1133DA0020C7FEA645C7FEA655C00F0E2804FEA23
S1133DB05454D4EB5555B8BF6D420CDD2C4480EA05
S1133DC0020281EA030382EA000083EA010180EA35
S1133DD0020281EA0303362D88BF30BD11F0004F83
S1133DE04FEA01314FF4801C4CEA113102D04042B9
S1133DF061EB410113F0004F4FEA03334CEA1333F4
S1133E0002D0524263EB430394EA050F00F0A7800B
S1133E10A4F10104D5F1200E0DDB02FA0EFC22FA06
S1133E2005F2801841F1000103FA0EF2801843FAFA
S1133E3005F359410EE0A5F120050EF1200E012AEB
S1133E4003FA0EFC28BF4CF0020C43FA05F3C01829
S1133E5051EBE37101F0004507D54FF0000EDCF1A2
S1133E60000C7EEB00006EEB0101B1F5801F1BD34B
S1133E70B1F5001F0CD349085FEA30004FEA3C0C4F
S1133E8004F101044FEA445212F5800F80F09A8045
S1133E90BCF1004F08BF5FEA500C50F1000041EB49
S1133EA0045141EA050130BD5FEA4C0C404141EB4D
S1133EB00101013C28BFB1F5801FE9D291F0000F48
S1133EC004BF01460020B1FA81F308BF2033A3F1F7
S1133ED00B03B3F120020CDA0C3208DD02F1140CEE
S1133EE0C2F10C0201FA0CF021FA02F10CE002F129
S1133EF01402D8BFC2F1200C01FA02F120FA0CFC22
S1133F00DCBF41EA0C019040E41AA2BF01EB04516A
S1133F10294330BD6FEA04041F3C1CDA0C340EDC68
S1133F2004F11404C4F1200220FA04F001FA02F3AB
S1133F3040EA030021FA04F345EA030130BDC4F169
S1133F400C04C4F1200220FA02F001FA04F340EA5E
S1133F500300294630BD21FA04F0294630BD94F00F
S1133F60000F83F4801306BF81F480110134013DF6
S1133F704EE77FEA645C18BF7FEA655C29D094EA67
S1133F80050F08BF90EA020F05D054EA000C04BFE5
S1133F901946104630BD91EA030F1EBF00210020D0
S1133FA030BD5FEA545C05D14000494128BF41F06F
S1133FB0004130BD14F580043CBF01F5801130BDD3
S1133FC001F0004545F0FE4141F470014FF000005E
S1133FD030BD7FEA645C1ABF194610467FEA655C0F
S1133FE01CBF0B46024650EA013406BF52EA0335B1
S1133FF091EA030F41F4002130BD00BF90F0000F9F
S113400004BF0021704730B54FF4806404F13204DA
S11340104FF000054FF0000150E700BF90F0000F93
S113402004BF0021704730B54FF4806404F13204BA
S113403010F0004548BF40424FF000013EE700BF8A
S113404042004FEAE2014FEA31014FEA02701FBF1A
S113405012F07F4393F07F4F81F06051704732F04C
S11340607F4208BF704793F07F4F04BF41F40021A3
S1134070704730B54FF4607401F0004521F0004101
S11340801CE700BF50EA010208BF704730B54FF08B
S113409000050AE050EA010208BF704730B511F08C
S11340A0004502D5404261EB41014FF4806404F1C4
S11340B032045FEA915C3FF4D8AE4FF003025FEA4A
S11340C0DC0C18BF03325FEADC0C18BF033202EBCE
S11340D0DC02C2F1200300FA03FC20FA02F001FA28
S11340E003FE40EA0E0021FA02F11444BDE600BFCB
S11340F053B94AB9002908BF00281CBF4FF0FF314B
S11341004FF0FF3000F082B9ADF1080C6DE904CE38
S113411000F006F8DDF804E0DDE9022304B070479E
S11341202DE9F04F099D0C46002B4DD18A420F46D4
S113413084469646B2FA82F360D94BB102FA03FE82
S1134140C3F120029F4000FA03FC20FA02F2174355
S11341504FEA1E461FFA8EF44FEA1C42B7FBF6F1F3
S113416006FB117701FB04F042EA0742904208D9AA
S11341701EEB020201F1FF3702D2904200F23181BC
S11341803946121A1FFA8CFCB2FBF6F006FB102219
S113419000FB04F44CEA024C644508D91EEB0C0CF9
S11341A000F1FF3202D2644500F21E81104640EA5B
S11341B00140ACEB040C002125B12CFA03F30022DE
S11341C0C5E90032BDE8F08F8B4205D90DB1C5E9D0
S11341D0000100210846F5E7B3FA83F100294DD127
S11341E0A342C0F0F380904280F0F080064623465C
S11341F00846002DE6D0C5E90063E3E7002B40F054
S1134200A3808A1A4FEA1E471FFA8EF60121B2FBD9
S1134210F7F407FB14204FEA1C4242EA004206FB73
S113422004F090420FD91EEB020204F1FF382CBFB8
S11342304FF001094FF00009904203D9B9F1000F82
S113424000F0CC804446121A1FFA8CFCB2FBF7F043
S113425007FB102200FB06F64CEA024C664508D91F
S11342601EEB0C0C00F1FF3202D2664500F2B38063
S11342701046ACEB060C40EA04409DE7C1F1200671
S11342808B4004FA01FE22FA06F720FA06FCF440F9
S11342908A401F434EEA0C0300FA01FE4FEA174816
S11342A04FEA13491FFA87FCB4FBF8F008FB1044EB
S11342B049EA044400FB0CF9A1450ED93C1900F16C
S11342C0FF3A2CBF4FF0010B4FF0000BA14503D96F
S11342D0BBF1000F00F08B805046A4EB09041FFAD9
S11342E083F9B4FBF8F308FB134403FB0CFC49EA21
S11342F00444A44506D93C1903F1FF3801D2A4456E
S11343007BD8434643EA0040A4EB0C04A0FB02988C
S11343104445CC46434602D306D1CE4504D20138A7
S1134320B9EB020C68EB0703002D6CD0BEEB0C025A
S113433064EB030422FA01F304FA06F6CC400021EC
S11343401E43C5E900643DE702FA03FEC3F1200100
S113435004FA03F200FA03FCCC404FEA1E4720FAA9
S113436001F11FFA8EF6B4FBF7F00A4307FB104481
S1134370110C41EA044100FB06F48C420ED91EEBF9
S1134380010100F1FF382CBF4FF001094FF0000983
S11343908C4202D9B9F1000F2CD04046091B92B2CD
S11343A0B1FBF7F407FB141142EA014204FB06F1E6
S11343B0914207D91EEB020204F1FF3801D2914267
S11343C01ED84446521A44EA004120E7861A64EB98
S11343D0030301200DE7F44402384AE7023C724427
S11343E031E702397244CCE6F4440238DFE602389D
S11343F03C4472E702387144D0E7023B3C4481E715
S1134400023C7244DEE72946DCE600BF704700BF89
S113441008B5064B044613B10021AFF30080044BEA
S11344201B6803B19847204602F046F800000000DC
S1134430681500202DE9F04F8DB00C4616461F4636
S1134440DDF85880054600F0B7FC0368184604936D
S113445002F032FA002305900A93D8F8003094F859
S113446018A00733D4F800B023F0070303F10802BF
S1134470C8F800204FF0FF32D3E9008929F0004347
S1134480CDF8188007939C4BDDE90601C4E9128935
S113449001F09CFD70BB4FF0FF32974BDDE9060144
S11344A001F076FD30BB002200234046494601F06E
S11344B065FD10B12D2384F84330904A904BBAF136
S11344C0470F94BF9046984603234FF00009236199
S11344D02BF00403236033460BAA21462846009799
S11344E002F0F1F8013040F096804FF0FF300DB04B
S11344F0BDE8F08F42464B464046494601F066FD12
S113450040B14B467F4A002BBCBF2D2384F8433077
S11345107D4BD4E763685A1C26D1062363604BF4B1
S1134520806200232846226003930AABCDE901A3ED
S113453009AB49EC108B00930DF12303616802F081
S113454021F8BAF1670F8046099915D1CB1C3BDBE2
S11345506368994238DC0A9B994255DB23682161E0
S1134560D80745D54B1C42E00AF0DF02472AD6D1D2
S1134570002BD4D10123D1E7BAF1470F07D1C81CCE
S113458025DB63688B4222DB4FF0670AE3E7BAF16D
S1134590650F1FD80139524604F15000099102F009
S11345A059F80A9A81461318012A236102DC226809
S11345B0D20701D5013323619DF82330002B8AD023
S11345C02D2384F8433086E74FF0650AE2E74FF085
S11345D0450ADFE7BAF1660FBDD1002963680BDD38
S11345E0216113B92268D00702D501330B4423613A
S11345F04FF00009A165DFE713B92268D20701D59E
S11346000233F4E70123F2E70029D4BFC1F1020227
S113461001221344EBE723685A0507D42369424671
S113462031462846B84701302BD15EE7BAF1650F11
S113463040F2DD8000220023D4E9120101F094FC51
S1134640002833D00123314A31462846B847013087
S11346503FF44BAFDDE90938434502DB2368D80753
S11346600FD531462846DDE90423B84701303FF42D
S11346703CAF4FF0000908F1FF3804F11A0AC845AD
S113468009DC23689B0700F10381E0680B9B9842D7
S1134690B8BF18462BE70123524631462846B8478F
S11346A001303FF422AF09F10109E8E7099B002B2F
S11346B039DC0123154A31462846B84701303FF416
S11346C014AFDDE9093959EA030302D12368D90794
S11346D0D7D531462846DDE90423B84701303FF4F5
S11346E004AF4FF0000A04F11A0B099B5B425345D7
S11346F00EDC4B4693E700BFFFFFEF7F7C740000A6
S11347008074000084740000887400008C740000BD
S113471001235A4631462846B84701303FF4E5AEF6
S11347200AF1010AE1E7A36DDDF828A05345A8BF0B
S11347305346002B994636DC4FF0000B29EAE97901
S113474004F11A02A36D0693A3EB09035B4531DC64
S1134750099B9A453ADC2368DA0737D4099BAAEB0C
S11347600309069BAAEB03039945A8BF9946B9F12F
S1134770000F33DC4FF0000829EAE97904F11A0B41
S1134780099BAAEB0303A3EB090343457FF779AF26
S113479001235A4631462846B84701303FF4A5AEB6
S11347A008F10108ECE7424631462846B847013093
S11347B0C2D19AE60123314628460692B847013011
S11347C03FF493AE0BF1010B069ABBE7DDE904233A
S11347D031462846B8470130C0D186E6069A4B4692
S11347E0314628464244B8470130C3D17DE6DDF85E
S11347F028A0BAF1010F01DCDB0736D501234246BC
S113480031462846B84701303FF46FAE314628465A
S1134810DDE90423B84701303FF467AE00220023EA
S11348200AF1FF3AD4E9120101F09EFBC0B95346E4
S113483008F1010231462846B84701300CD154E64C
S113484001235A4631462846B84701303FF44DAE5D
S113485008F10108D045F3DB4B4604F15002DFE6D2
S11348604FF0000804F11A0BF4E701234246E1E794
S113487001234A4631462846B84701303FF435AE55
S113488008F10108E3680B995B1A4345F0DCFCE688
S11348904FF0000804F11909F4E700BF2DE9FF47C0
S11348A00F7E914680460C46782F9A460C9E01F165
S11348B0430207D8622F0AD8002F00F0DD80582F5A
S11348C000F0C38004F1420684F842703AE0A7F194
S11348D06303152BF6D801A151F823F035490000E4
S11348E049490000C5480000C5480000C54800000B
S11348F0C548000049490000C5480000C5480000FB
S1134900C5480000C54800005F4A0000D7490000C0
S1134910174A0000C5480000C5480000814A00004D
S1134920C5480000D7490000C5480000C54800003C
S11349301F4A000033681A1D1B68326004F14206E6
S113494084F842300123A8E031682368081D3060F0
S11349501E0601D50D6803E05D06FBD5B1F90050D4
S1134960002D616878DA2D200029A16084F84300C5
S11349702DDA6D425D480A231646B5FBF3F103FBBD
S11349801157C75D06F8017D2F460D46BB42F4D989
S1134990082B0BD12368DF0708D523696168994286
S11349A0DEBF302306F8013C06F1FF36921B22617C
S11349B04B4603AA21464046CDF800A001F083FEF1
S11349C001306FD14FF0FF3004B0BDE8F08723F021
S11349D004032360CDE721683368080653F8045BB9
S11349E002D4490648BFADB26F2F33603F4814BFAD
S11349F00A230823002184F843106668002EA66069
S1134A00BADB216821F004012160002DB4D1002E0D
S1134A10B2D11646BCE7236843F02003236078270D
S1134A203348236884F845701F06316851F8045BE5
S1134A3002D45F0648BFADB23160D90744BF43F02A
S1134A40200323601DB11023D4E72848E9E7236835
S1134A5023F020032360F6E724480A23CDE73368D4
S1134A602568181D616930602E061B6801D5196020
S1134A7002E06806FBD5198000231646236197E7F8
S1134A80336800211A1D32601E686268304601F0E6
S1134A90F8FE08B1801B606063682361002384F81A
S1134AA0433085E72369324649464046D0470130C2
S1134AB088D023689B0714D4E068039B9842B8BF4E
S1134AC0184681E70123324649464046D047013023
S1134AD03FF478AF0135E36803995B1AAB42F1DC2C
S1134AE0EAE7002504F11906F5E700BF8E7400001B
S1134AF09F740000002310B5044683608181194629
S1134B004366C28108228361C0E90033C0E90433EB
S1134B105C3001F0ABFE0D4B246263620C4BA3626C
S1134B200C4BE3620C4B23630C4B9C4206D003F109
S1134B306802944202D0D0339C4205D104F158005B
S1134B40BDE8104001F09ABE10BD00BFE767000049
S1134B500968000041680000656800003014002006
S1134B60024A0349034801F020BE00BF141000208C
S1134B700F6C00002410002041680C4B994210B5C2
S1134B80044601D002F043F8A168094B994202D0CF
S1134B90204602F03CF8E168064B994204D02046D6
S1134BA0BDE8104002F033B810BD00BF301400203F
S1134BB0981400200015002010B50B4B04210B4C59
S1134BC00B4A20461A600022FFF794FF04F16800A4
S1134BD001220921FFF78EFF04F1D00002221221E5
S1134BE0BDE81040FFF786BF681500203014002090
S1134BF0614B0000014801F042BE00BFA415002033
S1134C00014801F03DBE00BFA415002010B50446C4
S1134C10FFF7F0FF236A1BB1BDE81040FFF7F0BFB8
S1134C20044B2362044B1B68002BF5D1FFF7C4FF30
S1134C30F2E700BF794B0000681500202DE9F74327
S1134C401D46574B04460E461F68904627B13B6AE3
S1134C5013B93846FFF7DAFFB8F1020F06D0B8F1FE
S1134C60010F00F29980002DC0F29680636ED9077F
S1134C7005D4A3899A0502D4A06D01F000FE214653
S1134C80384601F0C4FF616B41B104F14403994219
S1134C9002D0384600F0FEF8002363630023A361CA
S1134CA06360A3891B0603D52169384600F0F2F836
S1134CB0A389B8F1020F23F44A6323F00303A38109
S1134CC060D001AB6A462146384601F0C8FFA3898B
S1134CD01843A0812DBB009D284600F025F9064607
S1134CE0002851D1DDF80090A9453FD14FF0FF35A0
S1134CF0B4F90C3043F00202A2810022A26004F154
S1134D0047022260226101226261626ED60704D4E6
S1134D10980502D4A06D01F0B3FD284603B0BDE8A8
S1134D20F083002ED8D03B6A13B93846FFF76EFFE4
S1134D30B8F1010F266002BFA38943F00103A381E8
S1134D40B4F90C3013F00802C4E904651ED0D90785
S1134D5045BF00226D42A560A26048BFA561626E96
S1134D60D20701D49B0513D50025D6E7484600F0A9
S1134D70DBF806460028B9D0A3894D4643F08003EA
S1134D80A381D0E70025B3E7A946F5E7A260E6E7EB
S1134D90A06D01F075FDE7E74FF0FF35BDE700BFFB
S1134DA0201000200B46034902460868816800F081
S1134DB089BC00BF2010002000487047601100200B
S1134DC038B50023054D044608462B6001F072FBFC
S1134DD0431C02D12B6803B1236038BD6C1500203D
S1134DE038B50446064D0846114600222A601A4684
S1134DF001F06FFB431C02D12B6803B1236038BD63
S1134E006C15002038B50446064D084611460022AC
S1134E102A601A4601F05FFB431C02D12B6803B1E0
S1134E20236038BD6C15002038B50446064D08468D
S1134E30114600222A601A46FEF7ECFA431C02D1FE
S1134E402B6803B1236038BD6C15002070B50D4D7F
S1134E5000260D4C641BA410A64209D10B4D00265C
S1134E600B4C02F00DF8641BA410A64205D170BDD2
S1134E7055F8043B01369847EEE755F8043B0136F4
S1134E809847F2E7E4110020E4110020E411002027
S1134E90E811002038B50546002941D051F8043CFA
S1134EA00C1F002BB8BFE41800F0E0F81D4A13688B
S1134EB033B9636014602846BDE8384000F0DCB8BC
S1134EC0A34208D9206821188B4201BF19685B6886
S1134ED009182160EDE71A465B680BB1A342FAD9C1
S1134EE011685018A0420BD1206801445018116079
S1134EF08342E0D118685B68084453601060DAE7C5
S1134F0002D90C232B60D6E7206821188B4202BFFC
S1134F1019685B680918636008BF21605460CAE7B8
S1134F2038BD00BF74150020024B0146186800F01C
S1134F3025B800BF2010002070B50F4E0C46054662
S1134F40316811B900F04EFD30602146284600F06A
S1134F5049FD431C03D14FF0FF34204670BDC41CEF
S1134F6024F00304A042F8D0211A284600F03AFDA8
S1134F700130F2D1EFE700BF701500202DE9F041B8
S1134F80CD1C064625F0030508350C2D38BF0C252D
S1134F90002D01DBA94204D90C2333600020BDE8B5
S1134FA0F081314F00F062F83B681C4644BB29464F
S1134FB03046FFF7C1FF431C044650D13C682146EC
S1134FC0002941D1002C44D02368304604EB030867
S1134FD000F008FD80453CD1216830466D1A294611
S1134FE0FFF7AAFF013034D023682B4423603B68C9
S1134FF0002B36D05A68A24229D100225A600EE012
S11350002268521B1DD40B2A16D96119A3422560AC
S113501018BF5960636808BF396062514B603046FD
S113502000F02AF804F10B00231D20F00700C21A37
S1135030B5D01B1AA350B2E7A3426268DED13A602E
S1135040EDE723466468B1E70C464968B8E71346C0
S1135050CEE70C233046336000F00EF89EE705607F
S1135060DDE75B60FFDE00BF74150020014801F03E
S113507006BC00BFA3150020014801F001BC00BF1D
S1135080A315002070B5C66904460D4676B91020F4
S1135090FFF74AFF0246E06120B9184B6B2118481C
S11350A000F0B0FCC0E901660660C660E669F3681A
S11350B083B1E369DB6853F82500B8B901212046C0
S11350C001FA05F6721D920001F068FE60B1C0E9B4
S11350D001560EE021220421204601F05FFEE3691F
S11350E0F060DB68002BE4D1002070BD026843F857
S11350F025200023C0E90333F7E700BFBD74000097
S11351003E75000070B5C66905460C4676B9102098
S1135110FFF70AFF0246E86120B9094B8F210948CD
S113512000F070FCC0E901660660C6603CB1EB6942
S11351306268DB6853F82210216043F8224070BD96
S1135140BD7400003E7500002DE9F04101F1140C1E
S113515007460C461E460D690020DCF8003001307D
S113516099B2854202FB01614FEA13464FEA1143AB
S113517089B202FB063301EB03414FEA13464CF8B4
S1135180041BEADC0EB3A368AB4219DC6168384641
S11351900131FFF777FF804628B902460C4BBA214C
S11351A00C4800F02FFC226904F10C010C3002328F
S11351B0920001F074FB214644463846FFF7A2FFF3
S11351C004EB850301355E6125612046BDE8F0816D
S11351D02D7500003E75000010B50C460121FFF747
S11351E051FF024628B9054B40F24511044800F02E
S11351F009FC01234461036110BD00BF2D7500004B
S11352003E7500002DE9F04F14460A690F4685B03B
S113521023699A42A2BF23460C461F46D4F810A025
S1135220A368D7F8109061680AEB0906B342B8BFC7
S11352300131FFF727FF30B90246454B4FF4B171F6
S1135240444800F0DFFB00F11405002205EB86085A
S11352502B46434521D307F1140104F1140204F150
S1135260150702EB8A0201EB89030293131B153B1A
S113527023F003030433BA4238BF04230193029B8F
S113528003918B420CD8002E03DD58F8043D002B0B
S11352905BD0066105B0BDE8F08F43F8042BD8E776
S11352A0B1F800A0BAF1000F24D004F1140EA946FD
S11352B04FF0000C5EF8047BD9F800301FFA87FB2E
S11352C072459BB20AFB0B334FEA174BD9F80070B7
S11352D063444FEA174C0AFB0BC707EB13479BB217
S11352E04FEA174C43EA074349F8043BE2D8019BD1
S11352F045F803C0039B0431B3F80290B9F1000FE1
S113530021D02B6804F1140CAE464FF0000ABCF80F
S113531000B09BB2BEF8027009FB0B77574443EA16
S113532007434EF8043B5CF8043B4FEA134ABEF8CB
S11353300030624509FB0A3303EB17434FEA134A73
S1135340E5D8019FEB51043599E7013E9BE700BF87
S11353502D7500003E7500002DE9F843154612F046
S1135360030207460E4607D0013A254C002354F8A1
S11353702220FFF7E9FE0646AD103DD0FC697CB95A
S11353801020FFF7D1FD0246F86128B91D4B40F209
S1135390B3111D4800F036FBC0E901440460C46049
S11353A0D7F81C80D8F808404CB940F2712138462F
S11353B0FFF712FF00230446C8F8080003604FF00B
S11353C00009EB070AD5314622463846FFF71AFF93
S11353D08046314638464646FFF794FE6D100BD0A2
S11353E0206838B9224621463846FFF70BFF206073
S11353F0C0F800900446E4E73046BDE8F88300BFF7
S113540098750000BD7400003E7500002DE9F0475A
S11354100C46074691464FEA621A2369496803EB32
S11354206218A36808F10106B3420BDB3846FFF7A4
S113543029FE054648B90246284B4FF4EF71284827
S113544000F0E0FA01315B00EEE7002300F1140103
S113545000F110021846534533DB2AEAEA7A04F1D4
S11354601403206919F01F0901EB8A0103EB800C76
S11354702BD0C9F1200E8A460022186800FA09F0E0
S113548010434AF8040B53F8042B9C4522FA0EF2FD
S1135490F3D8ACEB040304F11500153B23F003032C
S11354A00433844538BF0423CA500AB108F1020604
S11354B0013E384621462E61FFF724FE2846BDE80A
S11354C0F087013342F8040FC5E7043953F8042B7D
S11354D09C4541F8042FF9D8EAE700BF2D75000078
S11354E03E7500002DE9F74F8946064611461446DD
S11354F0484601F0C5FA051E12D129463046FFF789
S1135500C1FD024628B9414B40F23721404800F022
S113551079FA0123C0E90435104603B0BDE8F08FE1
S1135520BCBF4B46A1463046B8BF0125D9F804108C
S1135530B4BF1C460025FFF7A5FD024618B9334B3E
S113554040F24521E2E7D9F8107004F1140E2669FF
S113555000F1140BC56009F1140509F110030EEBF9
S1135560860605EB8708D9464FF0000C0193019B92
S11355705EF8040B53F804AF764501931FFA8AF3DF
S1135580194683B24FEA1040A1EB0303C0EB1A4063
S1135590634400EB23409BB24FEA204C43EA0043B0
S11355A049F8043BE3D8331B1534153B23F00303BC
S11355B00433A64238BF04231D445B442C461E46D4
S11355C044450ED308F10301491B033D21F00301B7
S11355D0A84538BF00210B4453F8041D99B1176145
S11355E09AE754F8041BE6461FFA81FC080C714440
S11355F0F44489B200EB2C4041EA00414FEA204CCC
S113560046F8041BDCE7013FE6E700BF2D75000008
S11356103E7500002DE9F7430F460121164659EC6B
S1135620108BFFF72FFD044630B90246234B40F29E
S11356300F31234800F0E6F9C9F30A55C9F31303FF
S11356400DB143F480130193B8F1000323D06846ED
S1135650009301F0E8F9DDE90012D0B1C0F12003B4
S113566002FA03F3C2400B4301926361019B002BD6
S1135670A3610CBF012202222261A5B1A5F2334528
S11356800544C0F135003D603060204603B0BDE8FC
S1135690F0836161EAE701A801F0C5F9019B2030BC
S11356A001226361E8E7A0F2324004EB8203386030
S11356B0186901F096F9C0EB4210E5E72D7500007A
S11356C03E7500002DE9F04F0D469DB014469846F6
S11356D0064618B1036A0BB9FFF798FA6B6ED9073F
S11356E005D4AB899A0502D4A86D01F0C8F8AB893A
S11356F01B0701D52B699BB92946304600F0FAF8FF
S113570070B16B6EDC0704D54FF0FF301DB0BDE8FF
S1135710F08FAB899805F7D4A86D01F0B1F8F3E7E1
S11357200023CDF80C804FF00109DFF8B481099310
S113573020238DF8293030238DF82A3023469A46C9
S113574013F8012B0AB1252AF9D1BAEB040B0BD0BB
S11357505B4622462946304601F0C4F9013000F088
S1135760A780099A5A4409929AF80030002B00F055
S11357709F8000234FF0FF320AF1010A049307933C
S11357808DF853301A93CDE9052354460522544825
S113579014F8011B01F075F8049AD8B9D10644BF76
S11357A020238DF85330130744BF2B238DF8533037
S11357B09AF800302A2B15D0079A544600204FF04F
S11357C00A0C214611F8013B303B092B4BD9B0B1EF
S11357D0079214E0A0EB0803A24609FA03F313436B
S11357E00493D2E7039B191D1B68002B0391BBBFD5
S11357F05B4242F0020207930793B8BF04922378F6
S11358002E2B0AD163782A2B32D1039B02341A1D22
S11358101B6843EAE37303920593DFF8D4A00322E1
S11358202178504601F02DF838B1A0EB0A0040224F
S1135830049B013482401343049314F8011B062291
S113584028488DF8281001F01CF800283FD0264B7A
S11358501BBB039B073323F0070308330393099B04
S11358603B4409936AE70CFB02320C460120A8E78B
S1135870002301344FF00A0C19460593204610F812
S1135880012B303A092A03D9002BC6D00591C4E76D
S11358900CFB012104460123F0E703AB2A4604A9CB
S11358A030460093114BFEF7C5FD0746781CD6D150
S11358B06B6ED90705D4AB899A0502D4A86D00F0A4
S11358C0DFFFAB895B063FF51FAF09981EE703AB0B
S11358D02A4604A930460093044BFEF7DFFFE4E7B1
S11358E098760000A276000035440000E56A0000C6
S11358F09E76000038B5294B05460C46186818B149
S1135900036A0BB9FFF782F9B4F90C30190722D4F2
S1135910DA0607D409222A6043F040034FF0FF302F
S1135920A38133E0580712D5616B41B104F14403FC
S1135930994202D02846FFF7ADFA00236363A38996
S113594023F02403A3810023636023692360A389D4
S113595043F00803A38123694BB9A38903F420739B
S1135960B3F5007F03D02146284601F09DF9B4F930
S11359700C3013F001020AD00022A2606269524284
S1135980A261226942B913F08000C5D138BD9907DC
S113599058BF6269A260F4E70020F7E720100020F6
S11359A038B50023064D0446084611462B6000F026
S11359B084FD431C02D12B6803B1236038BD00BFB2
S11359C06C15002038B50023054D044608462B60AD
S11359D000F07AFD431C02D12B6803B1236038BD6B
S11359E06C15002038B50023054D044608462B608D
S11359F0FBF710FD431C02D12B6803B1236038BDB3
S1135A006C1500201FB514461A46094B05461B6841
S1135A10D86854B9074B1C4600910749CDE90134B5
S1135A202B4600F00DF801F0ECF9044BF4E700BF4D
S1135A3020100020396F0000C0760000B37600000B
S1135A400EB403B503AB0146054853F8042B0068B4
S1135A500193FFF737FE02B05DF804EB03B0704723
S1135A6020100020024B0146186801F0D1B900BF94
S1135A702010002038B50023064D04460846114680
S1135A802B6000F023FD431C02D12B6803B123607B
S1135A9038BD00BF6C15002070B54FF0FF0C4CF4FE
S1135AA0E06C1CEA11541DBF1CEA135594EA0C0F58
S1135AB095EA0C0F00F0DEF82C4481EA030621EA93
S1135AC04C5123EA4C5350EA013518BF52EA0335CE
S1135AD041F4801143F4801338D0A0FB02CE4FF080
S1135AE00005E1FB02E506F00042E0FB03E54FF0B0
S1135AF00006E1FB03569CF0000F18BF4EF0010EA8
S1135B00A4F1FF04B6F5007F64F5407404D25FEAA3
S1135B104E0E6D4146EB060642EAC62141EA555156
S1135B204FEAC52040EA5E504FEACE2EB4F1FD0C98
S1135B3088BFBCF5E06F1ED8BEF1004F08BF5FEA16
S1135B40500E50F1000041EB045170BD06F00046C8
S1135B5046EA010140EA020081EA0301B4EB5C0475
S1135B60C2BFD4EB0C0541EA045170BD41F480116D
S1135B704FF0000E013C00F3AB8014F1360FDEBF92
S1135B80002001F0004170BDC4F10004203C35DA6E
S1135B900C341BDC04F11404C4F1200500FA05F3F1
S1135BA020FA04F001FA05F240EA020001F0004292
S1135BB021F0004110EBD37021FA04F642EB060108
S1135BC05EEA430E08BF20EAD37070BDC4F10C0432
S1135BD0C4F1200500FA04F320FA05F001FA04F2F6
S1135BE040EA020001F0004110EBD37041F10001E2
S1135BF05EEA430E08BF20EAD37070BDC4F12005ED
S1135C0000FA05F24EEA020E20FA04F301FA05F254
S1135C1043EA020321FA04F001F0004121FA04F2FC
S1135C2020EA020000EBD3705EEA430E08BF20EACC
S1135C30D37070BD94F0000F0FD101F00046400006
S1135C4041EB010111F4801F08BF013CF7D041EA88
S1135C50060195F0000F18BF704703F0004652008C
S1135C6043EB030313F4801F08BF013DF7D043EA5D
S1135C700603704794EA0C0F0CEA135518BF95EA13
S1135C800C0F0CD050EA410618BF52EA4306D1D19A
S1135C9081EA030101F000414FF0000070BD50EAB9
S1135CA0410606BF1046194652EA430619D094EA43
S1135CB00C0F02D150EA013613D195EA0C0F05D12D
S1135CC052EA03361CBF104619460AD181EA030181
S1135CD001F0004141F0FE4141F470014FF0000039
S1135CE070BD41F0FE4141F4780170BD70B54FF0D4
